{
  "contractName": "UtilityContract",
  "abi": [
    {
      "anonymous": false,
      "inputs": [
        {
          "indexed": false,
          "internalType": "string",
          "name": "walletOwner",
          "type": "string"
        },
        {
          "indexed": false,
          "internalType": "string",
          "name": "token",
          "type": "string"
        },
        {
          "indexed": false,
          "internalType": "uint256",
          "name": "balance",
          "type": "uint256"
        }
      ],
      "name": "NewToken",
      "type": "event"
    },
    {
      "constant": true,
      "inputs": [
        {
          "internalType": "string",
          "name": "",
          "type": "string"
        },
        {
          "internalType": "uint256",
          "name": "",
          "type": "uint256"
        }
      ],
      "name": "wallet",
      "outputs": [
        {
          "internalType": "string",
          "name": "token",
          "type": "string"
        },
        {
          "internalType": "uint256",
          "name": "balance",
          "type": "uint256"
        }
      ],
      "payable": false,
      "stateMutability": "view",
      "type": "function"
    },
    {
      "constant": false,
      "inputs": [
        {
          "internalType": "string",
          "name": "_walletOwner",
          "type": "string"
        },
        {
          "internalType": "string",
          "name": "_token",
          "type": "string"
        },
        {
          "internalType": "uint256",
          "name": "_balance",
          "type": "uint256"
        }
      ],
      "name": "addToken",
      "outputs": [],
      "payable": false,
      "stateMutability": "nonpayable",
      "type": "function"
    },
    {
      "constant": true,
      "inputs": [
        {
          "internalType": "string",
          "name": "_walletOwner",
          "type": "string"
        }
      ],
      "name": "getBalance",
      "outputs": [
        {
          "components": [
            {
              "internalType": "string",
              "name": "token",
              "type": "string"
            },
            {
              "internalType": "uint256",
              "name": "balance",
              "type": "uint256"
            }
          ],
          "internalType": "struct UtilityContract.Token[]",
          "name": "",
          "type": "tuple[]"
        }
      ],
      "payable": false,
      "stateMutability": "view",
      "type": "function"
    }
  ],
  "bytecode": "0x608060405234801561001057600080fd5b50610a67806100206000396000f3fe608060405234801561001057600080fd5b50600436106100415760003560e01c80633a51d2461461004657806362a2065a14610076578063dc3c718314610092575b600080fd5b610060600480360361005b919081019061052d565b6100c3565b60405161006d9190610818565b60405180910390f35b610090600480360361008b919081019061056e565b6101f1565b005b6100ac60048036036100a791908101906105ed565b6102c5565b6040516100ba92919061087f565b60405180910390f35b6060806000836040516100d69190610801565b9081526020016040518091039020805480602002602001604051908101604052809291908181526020016000905b828210156101e25783829060005260206000209060020201604051806040016040529081600082018054600181600116156101000203166002900480601f0160208091040260200160405190810160405280929190818152602001828054600181600116156101000203166002900480156101c05780601f10610195576101008083540402835291602001916101c0565b820191906000526020600020905b8154815290600101906020018083116101a357829003601f168201915b5050505050815260200160018201548152505081526020019060010190610104565b50505050905080915050919050565b6101f96103b1565b60405180604001604052808481526020018381525090506000846040516102209190610801565b9081526020016040518091039020819080600181540180825580915050906001820390600052602060002090600202016000909192909190915060008201518160000190805190602001906102769291906103cb565b50602082015181600101555050507fe2f30aa8a61218a2f1f035d5b501ec93bb411d6babb93e8c500bcae8ac1ab0a88484846040516102b79392919061083a565b60405180910390a150505050565b60008280516020810182018051848252602083016020850120818352809550505050505081815481106102f457fe5b906000526020600020906002020160009150915050806000018054600181600116156101000203166002900480601f0160208091040260200160405190810160405280929190818152602001828054600181600116156101000203166002900480156103a15780601f10610376576101008083540402835291602001916103a1565b820191906000526020600020905b81548152906001019060200180831161038457829003601f168201915b5050505050908060010154905082565b604051806040016040528060608152602001600081525090565b828054600181600116156101000203166002900490600052602060002090601f016020900481019282601f1061040c57805160ff191683800117855561043a565b8280016001018555821561043a579182015b8281111561043957825182559160200191906001019061041e565b5b509050610447919061044b565b5090565b61046d91905b80821115610469576000816000905550600101610451565b5090565b90565b600082601f83011261048157600080fd5b813561049461048f826108dc565b6108af565b915080825260208301602083018583830111156104b057600080fd5b6104bb8382846109ba565b50505092915050565b600082601f8301126104d557600080fd5b81356104e86104e382610908565b6108af565b9150808252602083016020830185838301111561050457600080fd5b61050f8382846109ba565b50505092915050565b60008135905061052781610a0d565b92915050565b60006020828403121561053f57600080fd5b600082013567ffffffffffffffff81111561055957600080fd5b610565848285016104c4565b91505092915050565b60008060006060848603121561058357600080fd5b600084013567ffffffffffffffff81111561059d57600080fd5b6105a9868287016104c4565b935050602084013567ffffffffffffffff8111156105c657600080fd5b6105d2868287016104c4565b92505060406105e386828701610518565b9150509250925092565b6000806040838503121561060057600080fd5b600083013567ffffffffffffffff81111561061a57600080fd5b61062685828601610470565b925050602061063785828601610518565b9150509250929050565b600061064d83836107a6565b905092915050565b600061066082610944565b61066a8185610972565b93508360208202850161067c85610934565b8060005b858110156106b857848403895281516106998582610641565b94506106a483610965565b925060208a01995050600181019050610680565b50829750879550505050505092915050565b60006106d58261095a565b6106df8185610994565b93506106ef8185602086016109c9565b6106f8816109fc565b840191505092915050565b600061070e8261095a565b61071881856109a5565b93506107288185602086016109c9565b80840191505092915050565b600061073f8261094f565b6107498185610983565b93506107598185602086016109c9565b610762816109fc565b840191505092915050565b60006107788261094f565b6107828185610994565b93506107928185602086016109c9565b61079b816109fc565b840191505092915050565b600060408301600083015184820360008601526107c38282610734565b91505060208301516107d860208601826107e3565b508091505092915050565b6107ec816109b0565b82525050565b6107fb816109b0565b82525050565b600061080d8284610703565b915081905092915050565b600060208201905081810360008301526108328184610655565b905092915050565b6000606082019050818103600083015261085481866106ca565b9050818103602083015261086881856106ca565b905061087760408301846107f2565b949350505050565b60006040820190508181036000830152610899818561076d565b90506108a860208301846107f2565b9392505050565b6000604051905081810181811067ffffffffffffffff821117156108d257600080fd5b8060405250919050565b600067ffffffffffffffff8211156108f357600080fd5b601f19601f8301169050602081019050919050565b600067ffffffffffffffff82111561091f57600080fd5b601f19601f8301169050602081019050919050565b6000819050602082019050919050565b600081519050919050565b600081519050919050565b600081519050919050565b6000602082019050919050565b600082825260208201905092915050565b600082825260208201905092915050565b600082825260208201905092915050565b600081905092915050565b6000819050919050565b82818337600083830152505050565b60005b838110156109e75780820151818401526020810190506109cc565b838111156109f6576000848401525b50505050565b6000601f19601f8301169050919050565b610a16816109b0565b8114610a2157600080fd5b5056fea365627a7a72315820e5785d5aa1160a623d1e259a8a3ca38d5b15865b3c3280a5944c815ff7e6bf426c6578706572696d656e74616cf564736f6c63430005100040",
  "source": "// SPDX-License-Identifier: MIT\npragma solidity >=0.4.22 <0.9.0;\npragma experimental ABIEncoderV2;\n\ncontract UtilityContract {\n  struct Token {\n    string token;\n    uint balance;\n  }\n\n  mapping (string => Token[]) public wallet;\n\n  event NewToken(string walletOwner, string token, uint balance);\n\n  function addToken (string memory _walletOwner, string memory _token, uint _balance) public {\n    Token memory tmp = Token(_token, _balance);\n    wallet[_walletOwner].push(tmp);\n    emit NewToken(_walletOwner, _token, _balance);\n  }\n\n  function getBalance(string memory _walletOwner) public view returns(Token[] memory) {  \n    Token[] memory t = wallet[_walletOwner];\n    return t;\n  }\n}",
  "sourcePath": "/Users/shrmnl/Github/code-challenge/src/problem5/contracts/UtilityContract.sol",
  "compiler": {
    "name": "solc",
    "version": "0.5.16+commit.9c3226ce.Emscripten.clang"
  },
  "schemaVersion": "3.4.0",
  "updatedAt": "2021-07-06T02:46:12.515Z",
  "devdoc": {
    "methods": {}
  },
  "userdoc": {
    "methods": {}
  }
}