{
  "contractName": "UtilityContract",
  "abi": [
    {
      "inputs": [],
      "payable": false,
      "stateMutability": "nonpayable",
      "type": "constructor"
    },
    {
      "constant": true,
      "inputs": [],
      "name": "walletId",
      "outputs": [
        {
          "internalType": "uint256",
          "name": "",
          "type": "uint256"
        }
      ],
      "payable": false,
      "stateMutability": "view",
      "type": "function"
    },
    {
      "constant": true,
      "inputs": [
        {
          "internalType": "uint256",
          "name": "",
          "type": "uint256"
        }
      ],
      "name": "wallets",
      "outputs": [
        {
          "internalType": "string",
          "name": "walletAddress",
          "type": "string"
        },
        {
          "internalType": "uint256",
          "name": "balance",
          "type": "uint256"
        }
      ],
      "payable": false,
      "stateMutability": "view",
      "type": "function"
    },
    {
      "constant": false,
      "inputs": [
        {
          "internalType": "uint256",
          "name": "_balance",
          "type": "uint256"
        },
        {
          "internalType": "string",
          "name": "_walletAddress",
          "type": "string"
        }
      ],
      "name": "createWallet",
      "outputs": [],
      "payable": false,
      "stateMutability": "nonpayable",
      "type": "function"
    }
  ],
  "bytecode": "0x60806040526000805534801561001457600080fd5b5061005d620aa2896040518060400160405280600b81526020017f307831323334353637383900000000000000000000000000000000000000000081525061006260201b60201c565b61016f565b6000808154809291906001019190505550604051806040016040528082815260200183815250600160008054815260200190815260200160002060008201518160000190805190602001906100b89291906100ca565b50602082015181600101559050505050565b828054600181600116156101000203166002900490600052602060002090601f016020900481019282601f1061010b57805160ff1916838001178555610139565b82800160010185558215610139579182015b8281111561013857825182559160200191906001019061011d565b5b509050610146919061014a565b5090565b61016c91905b80821115610168576000816000905550600101610150565b5090565b90565b6103db8061017e6000396000f3fe608060405234801561001057600080fd5b50600436106100415760003560e01c80637ad71f7214610046578063c162ba2f146100f4578063ed7c546214610112575b600080fd5b6100726004803603602081101561005c57600080fd5b81019080803590602001909291905050506101d7565b6040518080602001838152602001828103825284818151815260200191508051906020019080838360005b838110156100b857808201518184015260208101905061009d565b50505050905090810190601f1680156100e55780820380516001836020036101000a031916815260200191505b50935050505060405180910390f35b6100fc610293565b6040518082815260200191505060405180910390f35b6101d56004803603604081101561012857600080fd5b81019080803590602001909291908035906020019064010000000081111561014f57600080fd5b82018360208201111561016157600080fd5b8035906020019184600183028401116401000000008311171561018357600080fd5b91908080601f016020809104026020016040519081016040528093929190818152602001838380828437600081840152601f19601f820116905080830192505050505050509192919290505050610299565b005b6001602052806000526040600020600091509050806000018054600181600116156101000203166002900480601f0160208091040260200160405190810160405280929190818152602001828054600181600116156101000203166002900480156102835780601f1061025857610100808354040283529160200191610283565b820191906000526020600020905b81548152906001019060200180831161026657829003601f168201915b5050505050908060010154905082565b60005481565b6000808154809291906001019190505550604051806040016040528082815260200183815250600160008054815260200190815260200160002060008201518160000190805190602001906102ef929190610301565b50602082015181600101559050505050565b828054600181600116156101000203166002900490600052602060002090601f016020900481019282601f1061034257805160ff1916838001178555610370565b82800160010185558215610370579182015b8281111561036f578251825591602001919060010190610354565b5b50905061037d9190610381565b5090565b6103a391905b8082111561039f576000816000905550600101610387565b5090565b9056fea265627a7a72315820e469375522614f60ba3d71de034d2bad90fc3d0c2d82cec771d85f2d4761998664736f6c63430005100032",
  "source": "// SPDX-License-Identifier: MIT\npragma solidity >=0.4.22 <0.9.0;\n\ncontract UtilityContract {\n  uint public walletId = 0;\n\n  struct Wallet {\n    string walletAddress;\n    uint balance;\n  }\n\n  mapping (uint => Wallet) public wallets;\n\n  constructor() public {\n    createWallet(696969, \"0x123456789\");\n  }\n\n  function createWallet(uint _balance, string memory _walletAddress) public {\n    walletId ++;\n    wallets[walletId] = Wallet(_walletAddress, _balance);\n  }\n}",
  "sourcePath": "/Users/shrmnl/Github/code-challenge/src/problem5/contracts/UtilityContract.sol",
  "compiler": {
    "name": "solc",
    "version": "0.5.16+commit.9c3226ce.Emscripten.clang"
  },
  "schemaVersion": "3.4.0",
  "updatedAt": "2021-07-05T16:06:31.175Z",
  "devdoc": {
    "methods": {}
  },
  "userdoc": {
    "methods": {}
  }
}